:100000000C9443080C9460080C9460080C946008ED
:100010000C9460080C9460080C9460080C946008C0
:100020000C9460080C9460080C94FE120C945A1303
:100030000C9460080C9460080C9460080C946008A0
:100040000C9460080C9460080C9460080C94600890
:100050000C9460080C9455150C9460080C9460087E
:100060000C9460080C9460080C9460080C94600870
:100070000C9460080C9460080C9460080C94600860
:100080000C9460080C9460080C9460080C94600850
:100090000C9460080C9460080C9460080C94600840
:1000A0000C9460080C9460080C946008F011F61130
:1000B000FF1105120B12111217121D124F125112BD
:1000C000541258125C125F1263126712EF0DEF0D9B
:1000D0003B113E11D30ED70F20105A10EB0EEF0F2D
:1000E000D50ED90FE50EE90FE30EE70F8F0E930F34
:1000F000ED0EF10F2A106210910E950F411144116F
:10010000EF0DEF0DA10EA50FEF0DEF0DEF0DEF0DA4
:10011000970E9B0F990E9D0FEF0DEF0DEF0DEF0D4D
:10012000EF0DEF0DEF0DEF0D970E9B0F990E9D0F3D
:10013000CF0ED30FCD0ED10FD10ED50FF10EF50F7F
:10014000250E290F210E250FF70DFB0E1D0E210F79
:10015000F50DF90EE70EEB0FE90EED0F070E0B0F85
:100160000B0E0F0F9B0E9F0FA30EA70FCB0ECF0FE3
:10017000A90EAD0FD90EDD0FF30DF70E150E190FE9
:10018000170E1B0F190E1D0FF90DFD0EEF0DEF0DC4
:10019000EF0DEF0D010E050F0D0E110FFB0DFF0EF4
:1001A000030E070F0F0E130FA50EA90F930E970F37
:1001B000130E170F1F0E230FFD0D010F110E150F3C
:1001C000FF0D030FD70EDB0FE10EE50F050E090F34
:1001D000090E0D0F1B0E1F0F230E270FA70EAB0FBF
:1001E000F30EF70F9F0EA30F290E2D0F2B0E2F0FBF
:1001F0002D0E310F2F0E330F310E350FDB0EDF0FAB
:10020000DF0EE30F330E370F350E390F370E3B0F6E
:10021000390E3D0F270E2B0F9D0EA10FEF0DEF0D89
:10022000EE0DEE0DEE0DEE0DEE0DEE0DE70EEB0FFD
:10023000EE0DEE0DEE0DEE0DEE0DEE0DEE0DEE0DE6
:10024000E90EED0FEE0DEE0DEE0DEE0DEE0DEE0DD9
:10025000EF0DEF0DEE0DEE0DEE0DEE0DEE0DEE0DC4
:10026000EE0DEE0DEE0DEE0DEE0DEE0DEE0DEE0DB6
:10027000EE0DEE0DEE0DEE0DEE0DEE0DEE0DEE0DA6
:10028000EE0DEE0DEE0DEE0DEE0DEE0DEE0DEE0D96
:10029000EE0DEE0DEE0DEE0DEE0DEE0DEE0DEE0D86
:1002A000EE0DEE0DEB0EEF0FED0EF10FEE0DEE0D70
:1002B000EE0DEE0DEE0DEE0DEE0DEE0DEE0DEE0D66
:1002C000EE0DEE0DEE0DEE0DEE0DEE0DEE0DEE0D56
:1002D000EE0DEE0DEE0DEE0DEE0DEE0DEF0DEF0D44
:1002E000EF0DEF0DEE0DEE0DEE0DEE0DEE0DEE0D34
:1002F000EE0DEE0DEE0DEE0DEE0DEE0DEE0DEE0D26
:10030000EE0DEE0DEE0DEE0DEE0DEE0DEE0DEE0D15
:10031000EE0DEE0DEE0DEE0DEE0DEE0DEE0DEE0D05
:10032000EE0DEE0DEE0DEE0DEE0DEE0DEE0DEE0DF5
:10033000EE0DEE0DEE0DEE0DEE0DEE0DEE0DEE0DE5
:10034000EE0DEE0DEE0DEE0DEE0DEE0DEE0DEE0DD5
:10035000EE0DEE0DEE0DEE0DEE0DEE0DEE0DEE0DC5
:10036000EE0DEE0DEE0DEE0DEE0DEE0DEF0DEF0DB3
:10037000EE0DEE0DEE0DEE0DEE0DEE0DE70EEB0FAC
:10038000EE0DEE0DEE0DEE0DEE0DEE0DEE0DEE0D95
:10039000E90EED0FEE0DEE0DEE0DEE0DEE0DEE0D88
:1003A000EF0DEF0DEE0DEE0DEE0DEE0DEE0DEE0D73
:1003B000EE0DEE0DEE0DEE0DEE0DEE0DEE0DEE0D65
:1003C000EE0DEE0DEE0DEE0DEE0DEE0DEE0DEE0D55
:1003D000EE0DEE0DEE0DEE0DEE0DEE0DEE0DEE0D45
:1003E000250E290F210E250FF70DFB0E1D0E210FD7
:1003F000F50DF90EEB0EEF0FED0EF10F0D0E110FC7
:100400000B0E0F0F9B0E9F0FA30EA70FEE0DEE0D01
:10041000A90EAD0FEE0DEE0DF30DF70E170E1B0F1F
:10042000F90DFD0EFD0D010FFF0D030FEF0DEF0D8B
:10043000EF0DEF0D010E050F050E090F070E0B0F47
:10044000090E0D0FA70EAB0FEE0DEE0DEE0DEE0D1E
:10045000130E170F1F0E230FFB0DFF0E150E190F96
:10046000190E1D0FEE0DEE0DEE0DEE0D230E270FE6
:100470001B0E1F0F030E070F0F0E130F110E150F7C
:10048000EE0DEE0DEE0DEE0DEE0DEE0DEE0DEE0D94
:10049000EE0DEE0DEE0DEE0DEE0DEE0DEE0DEE0D84
:1004A000EE0DEE0DEE0DEE0DEE0DEE0DEE0DEE0D74
:1004B000EE0DEE0DEE0DEE0DEE0DEE0DEF0DEF0D62
:1004C000EE0DEE0DEE0DEE0DEE0DEE0DEE0DEE0D54
:1004D000EE0DEE0DEE0DEE0DEE0DEE0DEE0DEE0D44
:1004E000EE0DEE0D630E670FEE0DEE0DEE0DEE0D43
:1004F000EF0DEF0DEF0DEF0DEF0DEF0DEF0DEF0D1C
:10050000EF0DEF0DEF0DEF0DEE0DEE0DEE0DEE0D0F
:10051000EE0DEE0DEE0DEE0DEF0DEF0DEF0DEF0DFF
:10052000C10EC50FBF0EC30FEF0DEF0DEF0DEF0D99
:10053000E9100611F0100911E2100311C610F710AE
:10054000EF0DEF0DEF0DEF0DEF0DEF0DEF0DEF0DCB
:10055000650E690F670E6B0F690E6D0FBF0EC30F2F
:10056000EF0DEF0DEF0DEF0DEF0DEF0DCD10FA10BC
:10057000DB100011D410FD10EF0DEF0DEF0DEF0D9E
:10058000EF0DEF0DEF0DEF0D6B0E6F0F6D0E710F89
:100590006F0E730FC30EC70FEF0DEF0DEF0DEF0DC5
:1005A000830E870F850E890F870E8B0F890E8D0F97
:1005B0008B0E8F0F8D0E910FEF0EF30FEF0DEF0DD2
:1005C000710E750F730E770F750E790FC50EC90F6B
:1005D000EF0DEF0DEF0DEF0D770E7B0F790E7D0F09
:1005E0007B0E7F0F7D0E810F7F0E830F810E850F97
:1005F000DD0EE10FEF0DEF0DEF0DEF0D9F0EA30FD1
:10060000C90ECD0FC70ECB0FEF0DEF0DEF0DEF0D98
:10061000EE0DEE0DEE0DEE0DEE0DEE0DEE0DEE0D02
:10062000EE0DEE0DEE0DEE0DEE0DEE0DEE0DEE0DF2
:10063000EE0DEE0DEE0DEE0DEE0DEE0DEE0DEE0DE2
:10064000EF0DEF0DEF0DEF0DEF0DEF0DEF0DEF0DCA
:10065000EF0DEF0DEF0DEF0DEE0DEE0DEE0DEE0DBE
:10066000EE0DEE0DEE0DEE0DEF0DEF0DEF0DEF0DAE
:10067000EF0DEF0DEF0DEF0DEF0DEF0DEF0DEF0D9A
:100680009D0EA10FB30EB70F970E9B0F990E9D0FE6
:10069000EF0DEF0DEF0DEF0DEF0DEF0DEF0DEF0D7A
:1006A000EF0DEF0DEF0DEF0DEF0DEF0DEF0DEF0D6A
:1006B000EF0DEF0DEF0DEF0D9F0EA30FB70EBB0F5C
:1006C000AB0EAF0FAF0EB30F3F0E430FEF0DEF0D9D
:1006D000EF0DEF0D010E050F050E090F070E0B0FA5
:1006E000090E0D0FEF0DEF0DEF0DEF0DEF0DEF0DEF
:1006F000EF0DEF0DEF0DEF0D5F0E630F3B0E3F0F94
:10070000EF0DEF0DEF0DEF0DEF0DEF0D530E570F3A
:10071000EF0DEF0DEF0DEF0D4B0E4F0FEF0DEF0D3A
:10072000EF0DEF0DEF0DEF0DEF0DEF0DEF0DEF0DE9
:10073000EF0DEF0DEF0DEF0DEF0DEF0DEF0DEF0DD9
:10074000EF0DEF0DEF0DEF0DEF0DEF0DEF0DEF0DC9
:10075000EF0DEF0DEF0DEF0D34106A10EF0DEF0DF3
:10076000EF0DEF0DEF0DEF0DEF0DEF0DEF0DEF0DA9
:10077000EF0DEF0DEF0DEF0DEF0DEF0DEF0DEF0D99
:10078000EF0DEF0DEE0DEE0DEF0DEF0DEF0DEF0D8B
:10079000EF0DEF0DEF0DEF0DEF0DEF0DEF0DEF0D79
:1007A000EF0DEF0DEF0DEF0DEF0DEF0DEF0DEF0D69
:1007B000EF0DEF0DEF0DEF0DEF0DEF0DEF0DEF0D59
:1007C000EF0DEF0DEF0DEF0DEF0DEF0DEF0DEF0D49
:1007D000EF0DEF0DEF0DEF0DEF0DEF0DEF0DEF0D39
:1007E000EF0DEF0DEF0DEF0DEF0DEF0DEF0DEF0D29
:1007F000EF0DEF0DEF0DEF0DEF0DEF0DEF0DEF0D19
:10080000EF0DEF0DEF0DEF0DEF0DEF0DEF0DEF0D08
:10081000EF0DEF0DEF0DEF0DEF0DEF0DEF0DEF0DF8
:10082000EF0DEF0DEF0DEF0DEF0DEF0DEF0DEF0DE8
:10083000EF0DEF0DEF0DEF0DEF0DEF0DEF0DEF0DD8
:10084000EF0DEF0DEF0DEF0DEF0DEF0DEF0DEF0DC8
:10085000EF0DEF0DEF0DEF0DEF0DEF0DEF0DEF0DB8
:10086000EF0DEF0DEF0DEF0DEF0DEF0DEF0DEF0DA8
:10087000EF0DEF0D0B10F00DEF0DEF0DEF0DEF0D78
:10088000EF0DEF0D9010F20D8410F10D7C107C1027
:10089000EF0DEF0DEF0DEF0DEF0DEF0DEF0DEF0D78
:1008A000EF0DEF0DEF0DEF0DEF0DEF0DEF0DEF0D68
:1008B000D70EDB0F8F0E930F910E950FDB0EDF0F10
:1008C000E70EEB0FE50EE90FE30EE70FE90EED0F74
:1008D000DF0EE30FD30ED70FD50ED90FE10EE50FC4
:1008E000EF0DEF0DEB0EEF0FA10EA50F950E990F6B
:1008F000E50EE90F0C104A10EF0DEF0DEF0DEF0DA7
:10090000EF0DEF0DEF0DEF0D0C104A10CF0ED30FC2
:10091000CD0ED10FCB0ECF0FD10ED50F3B113E1107
:10092000250E290F210E250FF70DFB0E1D0E210F91
:10093000F50DF90E161052109C10AC10070E0B0F8F
:100940000B0E0F0F9B0E9F0FA30EA70FA90EAD0F3F
:1009500041114411E70EEB0FF30DF70E150E190FB1
:10096000170E1B0F190E1D0FF90DFD0EEF0DEF0DDC
:10097000EF0DEF0D010E050F0D0E110FFB0DFF0E0C
:10098000030E070F0F0E130FA50EA90F930E970F4F
:10099000130E170F1F0E230FFD0D010F110E150F54
:1009A000FF0D030FD90EDD0FD90EDD0F050E090F58
:1009B000090E0D0F1B0E1F0F230E270FA70EAB0FD7
:1009C000950E990F9F0EA30F290E2D0F2B0E2F0F93
:1009D0002D0E310F2F0E330F310E350F1610EF0D78
:1009E0003E10FB0F330E370F350E390F370E3B0F0E
:1009F000390E3D0F270E2B0F9D0EA10FEF0DEF0DA2
:100A0000EE0DEE0DEE0DEE0DEE0DEE0DEE0DEE0D0E
:100A1000EE0DEE0DEE0DEE0DEE0DEE0DEE0DEE0DFE
:100A2000EE0DEE0DEE0DEE0DEE0DEE0DEE0DEE0DEE
:100A3000EF0DEF0DEE0DEE0DEE0DEE0DEE0DEE0DDC
:100A4000EE0DEE0D20105A10EE0DEE0DEE0DEE0D2A
:100A5000EE0DEE0DEE0DEE0D20105A10EE0DEE0D1A
:100A6000EE0DEE0DEE0DEE0DEE0DEE0DEE0DEE0DAE
:100A70003F0E430F430E470F470E4B0F4B0E4F0FCA
:100A80004F0E530FEE0DEE0DEE0DEE0D530E570FF4
:100A9000570E5B0F5B0E5F0F5F0E630F3B0E3F0F3A
:100AA000EE0DEE0DEE0DEE0D950E990FA90EAD0F9C
:100AB0005F0E630F3B0E3F0FA70EAB0FEF0DEF0D59
:100AC000EF0DEF0DCF0ED30FCD0ED10FCB0ECF0FFD
:100AD000D10ED50FEF0DEF0DEF0DEF0DEE0DEE0D6D
:100AE000AB0EAF0FAF0EB30F970E9B0F990E9D0F6E
:100AF000BB0EBF0FEE0DEE0DEE0DEE0DEF0DEF0D7B
:100B00009F0EA30FB70EBB0F9D0EA10FB30EB70F15
:100B1000EF0DEF0DEE0DEE0D770E7B0F790E7D0FC5
:100B20007B0E7F0F7D0E810F7F0E830F8B0E8F0F3D
:100B30008D0E910F810E850F830E870F850E890F05
:100B4000870E8B0F890E8D0FF50EF90FEF0DEF0D40
:100B5000EE0DEE0DEE0DEE0DEE0DEE0DEE0DEE0DBD
:100B6000EE0DEE0DEE0DEE0DEE0DEE0DEE0DEE0DAD
:100B7000EE0DEE0DEE0DEE0DEE0DEE0DEE0DEE0D9D
:100B8000EF0DEF0DEE0DEE0DEE0DEE0DEE0DEE0D8B
:100B9000EE0DEE0DEE0DEE0DEE0DEE0DEE0DEE0D7D
:100BA000EE0DEE0DEE0DEE0DEE0DEE0DEE0DEE0D6D
:100BB000EE0DEE0DEE0DEE0DEE0DEE0DEE0DEE0D5D
:100BC000250E290F210E250FF70DFB0E1D0E210FEF
:100BD000F50DF90EEE0DEE0DEE0DEE0D0D0E110FE5
:100BE0000B0E0F0F9B0E9F0FA30EA70FA90EAD0F9D
:100BF000EE0DEE0DEE0DEE0DF30DF70E170E1B0FB5
:100C0000F90DFD0EFD0D010FFF0D030FEF0DEF0DA3
:100C1000EF0DEF0D010E050F050E090F070E0B0F5F
:100C2000090E0D0FA70EAB0FEE0DEE0DEE0DEE0D36
:100C3000130E170F1F0E230FFB0DFF0E150E190FAE
:100C4000190E1D0FEE0DEE0DEE0DEE0D230E270FFE
:100C50001B0E1F0F030E070F0F0E130F110E150F94
:100C6000EE0DEE0DEE0DEE0D290E2D0F2B0E2F0FAE
:100C70002D0E310F2F0E330F310E350F5210EF0D99
:100C8000EE0DEE0D330E370F350E390F370E3B0FCD
:100C9000390E3D0F270E2B0FEE0DEE0DEF0DEF0D64
:100CA000EF0DEF0DEF0DEF0DEF0DEF0DEF0DEF0D64
:100CB000EF0DEF0DEF0DEF0DEF0DEF0DEF0DEF0D54
:100CC000EF0DEF0DEF0DEF0DEF0DEF0DEF0DEF0D44
:100CD000EF0DEF0DEF0DEF0DEF0DEF0DEF0DEF0D34
:100CE000EF0DEF0DEF0DEF0DEF0DEF0DEF0DEF0D24
:100CF000EF0DEF0DEF0DEF0DEF0DEF0DEF0DEF0D14
:100D0000EF0DEF0DEF0DEF0DEF0DEF0DEF0DEF0D03
:100D1000EF0DEF0DEF0DEF0DEF0DEF0DEF0DEF0DF3
:100D2000EF0DEF0DEF0DEF0DEF0DEF0DEF0DEF0DE3
:100D3000EF0DEF0DEF0DEF0DEF0DEF0DEF0DEF0DD3
:100D4000EF0DEF0DEF0DEF0DEF0DEF0DEF0DEF0DC3
:100D5000EF0DEF0DEF0DEF0DEF0DEF0DEF0DEF0DB3
:100D6000EF0DEF0DEF0DEF0DEF0DEF0DEF0DEF0DA3
:100D7000EF0DEF0DEF0DEF0DEF0DEF0DEF0DEF0D93
:100D8000EF0DEF0DEF0DEF0DEF0DEF0DEF0DEF0D83
:100D9000EF0DEF0DEF0DEF0DEF0DEF0DEF0DEF0D73
:100DA000EF0DEF0DEF0DEF0DEF0DEF0DEF0DEF0D63
:100DB000EF0DEF0D0B10F00DEF0DEF0DEF0DEF0D33
:100DC000EF0DEF0DEF0DEF0DEF0DEF0DEF0DEF0D43
:100DD000EF0DEF0DEF0DEF0DEF0DEF0DEF0DEF0D33
:100DE000EF0DEF0DEF0DEF0DEF0DEF0DEF0DEF0D23
:100DF000EE0DEE0DEE0DEE0DEE0DEE0DEE0DEE0D1B
:100E0000EE0DEE0DEE0DEE0DEE0DEE0DEE0DEE0D0A
:100E1000EE0DEE0D630E670FEE0DEE0DEE0DEE0D09
:100E2000EF0DEF0DEE0DEE0DDD0EE10FEE0DEE0D03
:100E3000EE0DEE0DEE0DEE0DEE0DEE0DEE0DEE0DDA
:100E4000EE0DEE0DEE0DEE0DEE0DEE0DEE0DEE0DCA
:100E5000A30EA70FBF0EC30FEE0DEE0DEE0DEE0DA0
:100E6000EE0DEE0DEE0DEE0DEE0DEE0DEE0DEE0DAA
:100E7000EE0DEE0DEE0DEE0DEE0DEE0DEE0DEE0D9A
:100E8000650E690F670E6B0F690E6D0FBF0EC30FF6
:100E9000EE0DEE0DEE0DEE0DEE0DEE0DEE0DEE0D7A
:100EA000EE0DEE0DEE0DEE0DEE0DEE0DEF0DEF0D68
:100EB000EF0DEF0DEE0DEE0D6B0E6F0F6D0E710F52
:100EC0006F0E730FC30EC70FEE0DEE0DEE0DEE0D90
:100ED000EE0DEE0DEE0DEE0DEE0DEE0DEE0DEE0D3A
:100EE000EE0DEE0DEE0DEE0DEE0DEE0DEE0DEE0D2A
:100EF000710E750F730E770F750E790FC50EC90F32
:100F0000EE0DEE0DEE0DEE0DEE0DEE0DEE0DEE0D09
:100F1000EE0DEE0DEE0DEE0DEE0DEE0DEE0DEE0DF9
:100F200072100310EE0DEE0D721003109F0EA30F42
:100F3000C90ECD0FC70ECB0FEE0DEE0D0001000058
:100F40006B101200020000C10F3B002200002C10A9
:100F50003F00210000D30F0900220100FC0F3000E8
:100F6000210100EC0F0900030000BD0F040103097B
:100F700004B30F08020309047B0F363603450072E1
:100F80000067006F0044006F007800200045007289
:100F90000067006F006E006F006D00690063002045
:100FA000004B006500790062006F00610072006410
:100FB0000000000803440049005900000004030930
:100FC0000409023B00020100C032090400000103D1
:100FD000010100092111010001223F0007058303DF
:100FE00008000A09040100010300000009211101A1
:100FF00000012230000705840308000A050109806A
:10100000A1018502150125B7190129B775109501B0
:101010008100C0050C0901A10185031501269C0270
:1010200019012A9C02751095018100C0050109066D
:10103000A10175019508050719E029E715002501AB
:10104000810295017508810395057501050819014F
:101050002905910295017503910395067508150000
:1010600025680507190029688100C01201000200E7
:10107000000020501D286000010102000100000155
:10108000C10601C1060011241FBECFEFDAE0DEBFAA
:10109000CDBF11E0A0E0B1E0EEEBF2E302C00590BD
:1010A0000D92AE30B107D9F722E0AEE0B1E001C059
:1010B0001D92AF33B207E1F70E94B1150C945D1990
:1010C0000C940000E9EBF0E080818C7F80838CE061
:1010D0008093B800089584EA8093BC008091BC009E
:1010E00087FFFCCF8091B900887F883049F08091DC
:1010F000B900887F803121F08091B900887F089500
:1011000080E0089584E98093BC008091BC0084FD58
:10111000FCCF08958093BB0084E88093BC0080914D
:10112000BC0087FFFCCF8091B900887F883171F0C7
:101130008091B900887F883249F08091B900887F1A
:10114000803421F08091B900887F089580E008956F
:1011500024EC2093BC002091BC0027FFFCCF209101
:10116000BB00FC0120838091B900887F803521F08D
:101170008091B900887F089580E00895682F81E00C
:101180000C94DF11682F80E00C94DF11CF93C82FEF
:1011900060EE81700E94DF1161EEC1FB882780F94B
:1011A0000E94DF1162EEC2FB882780F90E94DF11E6
:1011B00063EEC3FB882780F90E94DF1164EEC4FB55
:1011C000882780F90E94DF1165EEC5FB882780F92A
:1011D0000E94DF1166EEC6FB882780F90E94DF11AE
:1011E000C7FB882780F967EE0E94DF11CF910C942E
:1011F000A012DF92EF92FF920F931F93CF93DF9392
:1012000080EE0E944012D82E81EE0E944012E82EFD
:1012100082EE0E944012F82E83EE0E944012082FA8
:1012200084EE0E944012182F85EE0E944012D82FA3
:1012300086EE0E944012C82F87EE0E94401290E076
:10124000D0FA90F9E0FA91F9F0FA92F900FB93F9EB
:1012500010FB94F9D0FB95F9C0FB96F980FB97F948
:10126000892FDF91CF911F910F91FF90EF90DF9029
:101270000895CF93BEDFC82F8D7D88DF69E381E0BD
:101280000E94DF110E94A01269E380E00E94DF113A
:101290000E94A0128C2F7ADFCF910895F89481E0FC
:1012A0008093E00080E28093D8001092C9008FE123
:1012B0009EE40197F1F700C000001DBA109268008B
:1012C0001CBC10BE1FBA10927A0010926E001092D1
:1012D0006F0010927100109272001092C900ECEB36
:1012E000F0E0108214B817B81AB81DB810BA1082FE
:1012F00015B818B81BB81EB811BA0C94003F089561
:10130000CF93DF93C0911101809110019C2F981B06
:10131000892F9FEF980F9730C0F0811102C0D5E060
:1013200001C0DBEF6C2F6D0F660F70E080910E0136
:1013300090910F010E945A18009749F090930F0165
:1013400080930E01CD0FC093110180E001C081E0B8
:10135000DF91CF91089520911001821778F430E049
:1013600021503109281B3109220F331FE0910E0152
:10137000F0910F01E20FF31F8181089580E008953D
:101380004091100120910E0130910F0190E09417CF
:1013900069F02E5F3F4FF90132975081581304C016
:1013A0008FEF840F891B08959F5FF1CF8FEF089512
:1013B000EF92FF920F931F93CF93DF93E82E062FA8
:1013C000F42E862FDDDF109110018117A0F198DF38
:1013D000E11005C01F5F109310018E2D2CC08FEF00
:1013E0008E0D90911101811720F5911711F19FEF4A
:1013F000910FC92FC81B20910E0130910F01D0E031
:10140000C150DF4FA92FB0E0AC17BD0719F3FD01A4
:10141000EF5FF109EE0FFF1FE20FF31FAA0FBB1FD3
:10142000A20FB31F8C91808311968C918183915070
:10143000E9CF8FEF11C02091100130E02150310928
:10144000281B3109220F331FE0910E01F0910F018B
:10145000E20FF31F0083F182DF91CF911F910F9173
:10146000FF90EF900895CF938BDFC82F90911001DC
:10147000891708F5892F8C1B915040910E015091CE
:101480000F01292F30E02F5F3F4FA82FB0E0A217A8
:10149000B30799F0FD013197EE0FFF1FE40FF51F21
:1014A000AA0FBB1FA40FB51F6C91608311966C919E
:1014B00061838F5FEACF8FEF04C09093100120DF2C
:1014C0008C2FCF9108958091100108957AD18111C8
:1014D00005C0CFD0882321F082E0089581E00895EF
:1014E00080E00895CF93DF93EC0132D2811106C0E2
:1014F000CE01EAD0882321F082E003C081E001C060
:1015000080E0DF91CF910895823059F018F4813056
:1015100031F00895833039F0843039F00895259AF8
:101520000895269A0895279A08955E9A089582301C
:1015300059F018F4813031F00895833039F0843057
:1015400039F00895259808952698089527980895C4
:101550005E980895282FCB01BA01223091F02330F4
:10156000F1F0213049F520E030E04FE753E40E94EC
:10157000A8160E94531670E070938900609388004B
:10158000089520E030E04FE753E40E94A8160E943F
:10159000531670E070938B0060938A00089520E0EA
:1015A00030E04FE753E40E94A8160E94531670E003
:1015B00070938D0060938C00089581E0A5DF82E038
:1015C000A3DF83E0A1CF81E0B2DF82E0B0DF83E080
:1015D000AECFCF92DF92EF92FF926B017C01AB0115
:1015E000BC0181E0B7DFB701A60182E0B3DFB7013C
:1015F000A60183E0FF90EF90DF90CF90ABCF6DEC32
:101600007CEC8CE49DE3E5DFD8CFDDDF60E070E0CB
:1016100080E09FE3DECF8FE790E090938900809396
:1016200088002FE782E490E1215080409040E1F76C
:1016300000C000008FE790E090938B0080938A00B9
:101640002FE782E490E1215080409040E1F700C014
:1016500000008FE790E090938D0080938C002FE73F
:1016600082E490E1215080409040E1F700C000000A
:101670000895CF9330DD80E44DDDC82F811120C067
:1016800080E048DD80E846DD8FEF44DD3BDD23DD93
:1016900080E440DDC82F811113C08CE03BDD80E881
:1016A00039DD8FEF37DD2EDD16DD80E433DDC82F29
:1016B000811106C084E12EDD8FEF2CDD8FEF2ADD56
:1016C00021DD8C2FCF9108958F929F92BF92CF9260
:1016D000DF92EF92FF920F931F93CF93DF931F92AE
:1016E000CDB7DEB77C01C5DFB82E882369F096E060
:1016F000F70187E011928150E9F791508EE0E80EF2
:10170000F11C9111F5CF4FC000E010E0CC24C39440
:10171000D12CE1DC80E4FEDC82E1FCDCC601002EA1
:1017200001C0880F0A94EAF78095F4DCEBDCD3DC87
:1017300080E4F0DC83E1EEDCCEDC81E4EBDCCE01A6
:10174000019606DDDFDC8981882E912C60E070E057
:1017500045E050E0D701A00FB11FFD01E60FF71FD4
:101760009401042E02C0359527950A94E2F7217062
:10177000332781E028272170208341505109625F7F
:101780007F4F4F3F8FEF580741F70F5F1F4F0730D5
:10179000110509F0BECF9FDC80E4BCDC82E1BADC3D
:1017A0008FEFB8DCAFDC8B2D0F90DF91CF911F91C5
:1017B0000F91FF90EF90DF90CF90BF909F908F9010
:1017C0000895E1E6F0E080E88083108256985E9804
:1017D00024982C98F8DE89EA8093800089E0809331
:1017E000810070DC3F9885E08A95F1F700005798FA
:1017F00085E08A95F1F70000549885E08A95F1F725
:101800000000559885E08A95F1F700006E9885E014
:101810008A95F1F70000479A85E08A95F1F7000074
:101820005F9A85E08A95F1F700005C9A85E08A95D9
:10183000F1F700005D9A85E08A95F1F70000769A4D
:1018400085E08A95F1F70000879885E08A95F1F7A1
:101850000000869885E08A95F1F70000859885E07C
:101860008A95F1F70000849885E08A95F1F70000E9
:10187000819885E08A95F1F70000809885E08A9547
:10188000F1F70000209885E08A95F1F70000219893
:1018900085E08A95F1F70000229885E08A95F1F7B6
:1018A0000000239885E08A95F1F70000529885E0C2
:1018B0008A95F1F70000539885E08A95F1F70000CA
:1018C0003E9885E08A95F1F700008F9A85E08A9529
:1018D000F1F700008E9A85E08A95F1F700008D9A65
:1018E00085E08A95F1F700008C9A85E08A95F1F7FA
:1018F0000000899A85E08A95F1F70000889A85E0D2
:101900008A95F1F70000289885E08A95F1F70000A4
:10191000299885E08A95F1F700002A9885E08A9554
:10192000F1F700002B9885E08A95F1F700005A98AE
:1019300085E08A95F1F700005B9885E08A95F1F7DC
:101940000000469885E08A95F1F7000080E0089550
:10195000FC01209A85E08A95F1F700008FB180950F
:10196000881F8827881F87838FB191E086FB88278F
:1019700080F98927858B8FB185FB882780F9892796
:1019800083A38FB182958170892781AB8FB18695B2
:101990008170892787AF8FB1DF01AA5BBF4F81704C
:1019A000892717968C931797209885E08A95F1F7E9
:1019B0000000219A85E08A95F1F700008FB18095AB
:1019C000881F8827881F80878FB186FB882780F92A
:1019D0008927868B8FB185FB882780F9892784A387
:1019E0008FB182958170892782AB8FB116978695CA
:1019F000817089278C938FB11696817089271896EC
:101A00008C931897219885E08A95F1F70000229A27
:101A100085E08A95F1F700008FB18095881F8827AF
:101A2000881F81878FB186FB882780F98927878B5C
:101A30008FB185FB882780F9892785A38FB182958F
:101A40008170892783AB8FB115978695817089271F
:101A50008C938FB115968170892719968C9319975D
:101A6000229885E08A95F1F70000239A85E08A950F
:101A7000F1F700008FB18095881F8827881F828723
:101A80008FB186FB882780F98927808F8FB185FBEE
:101A9000882780F9892786A38FB18295817089274D
:101AA00084AB8FB114978695817089278C938FB101
:101AB0001496817089271A968C931A97239885E03B
:101AC0008A95F1F70000529A85E08A95F1F70000B7
:101AD0008FB18095881F8827881F83878FB186FBE9
:101AE000882780F98927818F8FB185FB882780F926
:101AF000892787A38FB182958170892785AB8FB1A4
:101B000013978695817089278C938FB11396817076
:101B100089271B968C931B97529885E08A95F1F73D
:101B20000000539A85E08A95F1F700008FB1809507
:101B3000881F8827881F84878FB186FB882780F9B4
:101B40008927828F8FB185FB882780F9892780A715
:101B50008FB182958170892786AB8FB11297869558
:101B6000817089278C938FB11296817089271C967A
:101B70008C931C97539885E08A95F1F700003E9A64
:101B800085E08A95F1F700008FB18095881F88273E
:101B9000881F85878FB186FB882780F98927838FE7
:101BA0008FB185FB882780F9892781A78FB182951E
:101BB0008170892787AB8FB11197869581708927AE
:101BC0008C938FB1EA5BFF4F8170892785873E98A0
:101BD00085E08A95F1F7000080E008950895089562
:101BE00008950895089584E0C9CA85E0C7CA86E0CB
:101BF000C5CA87E0C3CA88E0C1CA89E0BFCA8AE013
:101C0000BDCA8BE0BBCA8CE0B9CA8DE0B7CA8EE012
:101C1000B5CA8FE0B3CA80E1B1CA81E1AFCA82E13F
:101C2000ADCA83E1ABCA84E1A9CA85E1A7CA86E14E
:101C3000A5CA87E1A3CA88E1A1CA89E19FCA8AE14E
:101C40009DCA8BE19BCA8CE199CA8DE197CA87E254
:101C500095CA8EE193CA8FE191CA80E28FCA81E270
:101C60008DCA82E28BCA83E289CA84E287CA85E28E
:101C700085CA86E283CA81EE81DA87E27FCA81EE75
:101C80007DDA8EE17BCA81EE79DA8FE177CA81EE67
:101C900075DA80E273CA81EE71DA81E26FCA81EE91
:101CA0006DDA82E26BCA81EE69DA83E267CA81EE9D
:101CB00065DA84E263CA81EE61DA85E25FCA81EEA9
:101CC0005DDA86E25BCA82E659CA89E557CA8AE5C7
:101CD00055CA8BE553CA8CE551CA8DE54FCA8EE5CE
:101CE0004DCA8FE54BCA80E649CA81E647CA8AE3F6
:101CF00045CA8BE343CA8CE341CA8DE33FCA8EE3F6
:101D00003DCA8FE33BCA80E439CA81E437CA82E422
:101D100035CA83E433CA84E431CA85E42FCA88E231
:101D20002DCA8CE22BCA8BE229CA81E327CA8FE233
:101D300025CA80E323CA86E321CA8DE21FCA8EE248
:101D40001DCA85E31BCA87E319CA84E317CA83E364
:101D500015CA88E313CA81EE11DA8FE20FCA81EE49
:101D60000DDA80E30BCA81EE09DA8DE207CA81EE53
:101D700005DA8EE203CA81EE01DA83E3FFC988E562
:101D8000FDC983E6FBC987E5F9C986E5F7C985E59D
:101D9000F5C984E5F3C982E5F1C981E5EFC980E5BC
:101DA000EDC98FE4EBC98AE2E9C98CE4E7C98DE4A7
:101DB000E5C989E2E3C98AE4E1C989E4DFC98BE4C2
:101DC000DDC98EE4DBC986EED9C982EED7C980EEC3
:101DD000D5C984EED3C983EED1C987EECFC983E5D7
:101DE000CDC984E6CBC982E3C9C986E6C7C984E008
:101DF000C9C985E0C7C986E0C5C987E0C3C988E00D
:101E0000C1C989E0BFC98AE0BDC98BE0BBC98CE00C
:101E1000B9C98DE0B7C98EE0B5C98FE0B3C980E11B
:101E2000B1C981E1AFC982E1ADC983E1ABC984E148
:101E3000A9C985E1A7C986E1A5C987E1A3C988E148
:101E4000A1C989E19FC98AE19DC98BE19BC98CE148
:101E500099C98DE197C987E295C98EE193C98FE150
:101E600091C980E28FC981E28DC982E28BC983E288
:101E700089C984E287C985E285C986E283C987E288
:101E800081D981EE7FC98EE17DD981EE7BC98FE159
:101E900079D981EE77C980E275D981EE73C981E283
:101EA00071D981EE6FC982E26DD981EE6BC983E28F
:101EB00069D981EE67C984E265D981EE63C985E29B
:101EC00061D981EE5FC986E25DD981EE5BC982E6A8
:101ED00059C989E557C98AE555C98BE553C98CE5C8
:101EE00051C98DE54FC98EE54DC98FE54BC980E6D7
:101EF00049C981E647C98AE345C98BE343C98CE3F5
:101F000041C98DE33FC98EE33DC98FE33BC980E4FE
:101F100039C981E437C982E435C983E433C984E42B
:101F200031C985E42FC988E22DC98CE22BC98BE227
:101F300029C981E327C98FE225C980E323C986E344
:101F400021C98DE21FC98EE21DC985E31BC987E344
:101F500019C984E317C983E315C988E313C98FE25C
:101F600011D981EE0FC980E30DD981EE0BC98DE245
:101F700009D981EE07C98EE205D981EE03C983E351
:101F800001D981EEFFC888E5FDC883E6FBC887E577
:101F9000F9C886E5F7C885E5F5C884E5F3C882E5A4
:101FA000F1C881E5EFC880E5EDC88FE4EBC88AE2AF
:101FB000E9C88CE4E7C88DE4E5C889E2E3C88AE4AF
:101FC000E1C889E4DFC88BE4DDC88EE4DBC886EEB7
:101FD000D9C882EED7C880EED5C884EED3C883EEC8
:101FE000D1C887EECFC883E5CDC884E6CBC882E3ED
:101FF000C9C886E6C7C883E8C5D8809106018E7F28
:1020000080930601089583E8BDD8809106018E7FF4
:1020100080930601089542C941E061E080E0C8D99B
:10202000809106018E7F80930601089542E062E070
:1020300080E0BED9809106018E7F809306010895CD
:1020400043E063E080E0B4D9809106018E7F809305
:102050000601089544E064E080E0AAD98091060179
:102060008E7F80930601089545E065E080E0A0D969
:10207000809106018E7F80930601089544E06AE016
:1020800080E096D983E87AD8809106018E7F80938C
:102090000601089581E0E7D9809106018E7F809343
:1020A0000601089582E0DFD9809106018E7F80933A
:1020B0000601089583E0D7D9809106018E7F809331
:1020C0000601089584E0CFD9809106018E7F809328
:1020D0000601089585E0C7D9809106018E7F80931F
:1020E000060108958AE0BFD983E848D880910601A7
:1020F0008E7F80930601089581E019DA82E017DA75
:1021000081E0B1D982E0AFC9F7DF41E061E080E072
:102110004FD9809106018E7F8093060181E0F4C93A
:10212000EBDF42E062E080E043D9809106018E7FE0
:102130008093060182E0E8C944E06AE080E038D993
:1021400083E81CD8FDD183E81DD8FAD1809106011F
:102150008E7F8093060108958AE085D983E80ED8A2
:10216000EFD183E80FD8ECD1809106018E7F809368
:10217000060108952091350230913602281739075B
:1021800021F41092360210923502089585EB90E00A
:102190009093360280933502089582EE90E09093FA
:1021A000360280933502089589EE90E090933602CE
:1021B0008093350208958AEE90E0909336028093E2
:1021C000350208958DEC90E09093360280933502AD
:1021D000089587EB90E0909336028093350208953E
:1021E00086EB90E09093360280933502089585EB5C
:1021F00090E0C0CF82EE90E0BDCF89EE90E0BACF04
:102200008AEE90E0B7CF8DEC90E0B4CF87EB90E012
:10221000B1CF86EB90E0AECF1F93CF93DF931F92A9
:10222000CDB7DEB7182F882351F0909166019F5FDC
:1022300090936601862F69830E94BE086981809110
:102240006601823039F4112339F00F90DF91CF917C
:102250001F910FC811110AC0815080936601862F0B
:102260000F90DF91CF911F910C94C2080F90DF91D6
:10227000CF911F91089561EE81E0CECF61EE80E0B5
:10228000CBCF65EE81E0C8CF65EE80E0C5CF7F9211
:102290008F929F92AF92BF92CF92DF92EF92FF9276
:1022A0000F931F93CF93DF93882E712C042F10E090
:1022B00081E08825A82EB12CC62ED12C8EE0689FF7
:1022C0007001112434E5932EE701C00FD11FCE5EBB
:1022D000DE4FF9D8282F30E02F5F3F4F872D90E059
:1022E000281739070CF44AC0711004C0811044C08B
:1022F000888103C08FEF870D2ED8F701989EE00DDF
:10230000F11D1124E00FF11FEE0FFF1FEA0DFB1D61
:10231000EE0FFF1FE453FF4F259134919DE02E3EB9
:10232000390751F12115310539F1882059F09EE026
:102330009C9DD0019D9DB00D1124A00FB11FAE5EDC
:10234000BE4F8C938091060180FA80F9809306013C
:10235000F90109958091060180FF10C0DF91CF91AE
:102360001F910F91FF90EF90DF90CF90BF90AF90B3
:102370009F908F907F9067C37394ABCFDF91CF9185
:102380001F910F91FF90EF90DF90CF90BF90AF9093
:102390009F908F907F900895833411F483E0B4C8A8
:1023A0000895833411F483E0C2C808950895D4C019
:1023B000EAD091E0811101C090E0892F0895962F15
:1023C000662309F45BC0462F50E0FA01E05EF10994
:1023D000E830F105C0F5EA5AFF4F909170015DC4F5
:1023E000882311F0916005C09E7F03C0882329F0E7
:1023F00092609093700180E008959D7FFACF8823CA
:1024000011F09460F6CF9B7FF4CF882311F0986091
:10241000F0CF977FEECF882311F09061EACF9F7EB7
:10242000E8CF882311F09062E4CF9F7DE2CF88232C
:1024300011F09064DECF9F7BDCCF882311F0906891
:10244000D8CF9F77D6CFEAE6F1E020E030E04081B8
:10245000882339F041110CC0F901E659FE4F9083F1
:10246000CACF491305C0F901E659FE4F1082C3CF08
:102470002F5F3F4F31962630310549F781E00895AF
:102480008823A9F1482F50E0FA01E05EF109E83015
:10249000F10508F5E25AFF4F80917001FEC381708B
:1024A000089586958170089582FB882780F90895A4
:1024B00083FB882780F9089582958170089585FBB4
:1024C000882780F9089586FB882780F90895881F5A
:1024D0008827881F0895EAE6F1E09191981729F07E
:1024E00091E0E037F907C9F702C081E0089580E084
:1024F00008958E34A1F04CF48334A9F08B34F1F4B8
:10250000809168018295817008958F3489F08335B8
:10251000A9F48091680182FB882780F90895809151
:102520006801817008958091680186958170089591
:102530008091680183FB882780F9089580E00895E1
:10254000CF9324D0C82F3ED28C2FCF910895809165
:10255000E80080FFFCCF089581E08093D70080EAF7
:102560008093D80082E189BD09B400FEFDCF80E9E7
:102570008093D8001092E000109271018CE080935B
:10258000E20078940895809171010895809171011D
:10259000811102C08FEF08958FB7F89493E0909364
:1025A000E9009091E4009E5C23E03091E80035FD65
:1025B0000EC08FBF80917101882361F38091E40088
:1025C000891741F38FB7F8942093E900EECF9091EB
:1025D00070019093F1001092F100EAE6F1E0919120
:1025E0009093F10091E0E037F907C9F79AE39093EF
:1025F000E800109269018FBF80E008951F920F924A
:102600000FB60F9211248F939F93EF93FF938091B6
:10261000E1001092E10083FF0FC01092E90091E009
:102620009093EB001092EC0092E29093ED0098E012
:102630009093F0001092710182FF33C0809171017C
:10264000882379F180910701882359F180916701EE
:102650008F5F80936701837021F583E08093E900A9
:102660008091E80085FF1DC0809169018F5F809394
:10267000690190910701891314C01092690180913A
:1026800070018093F1001092F100EAE6F1E081918F
:102690008093F10081E0E037F807C9F78AE380937F
:1026A000E800FF91EF919F918F910F900FBE0F90D7
:1026B0001F9018951F920F920FB60F921124EF9250
:1026C000FF920F931F932F933F934F935F936F93BB
:1026D0007F938F939F93AF93BF93EF93FF93CF938A
:1026E000DF931F92CDB7DEB71092E9008091E8002A
:1026F00083FF20C19091F1008091F1003091F100B1
:102700002091F100E32EF12CF22A0091F1002091AA
:10271000F10010E0122B2091F1006091F10032EFF6
:102720003093E800863009F046C039E08CE39FE042
:10273000FC01459154914E155F0539F4FC01329628
:10274000459154914017510721F00796315081F778
:10275000F1C0FC01349645915491FC013696849168
:1027600030E0362B2F3F310519F010F02FEF30E01D
:10277000281708F4822F3EEF9091E800292F25704A
:10278000D9F392FDDAC0982F813208F090E2FA0175
:10279000292F222331F064916093F100215031966A
:1027A000F8CF490F511D891B3093E8008111E4CF08
:1027B000903211F3C2C0853049F48EEF8093E80067
:1027C000C6DE8E2D80688093E300B7C0893039F56E
:1027D000911145C0E09271018EEF8093E80041E0D5
:1027E0008DE790E14093E9009C012F5F3F4FFC0192
:1027F00054915093EB00552359F0F9012491209303
:10280000EC009C012D5F3F4F319684918093ED0049
:102810004F5F453011F0C901E5CF8EE141C08830EE
:1028200039F4903809F041C092DE8091710160C0A6
:10283000811115C099838BDE9981923851F40093F0
:10284000E9008091EB0085FB882780F91092E90070
:1028500001C080E08093F1001092F10067C0282F42
:102860002D7F213011F5923001F5EF2809F062C07B
:102870000F779FEF900F943008F05CC09EEF90931D
:10288000E8000093E900833009F454C089E18093A3
:10289000EB0081E090E0002E01C0880F0A94EAF777
:1028A0008093EA001092EA0048C0012B09F042C070
:1028B000913A09F5813089F44ADE80917001809364
:1028C000F1001092F100EAE6F1E081918093F100CD
:1028D00081E0E037F807C9F729C0823021F437DEFC
:1028E0008091070105C0833029F531DE8091080110
:1028F0008093F1001BC09132E9F4893061F480913A
:10290000E80082FFFCCF8091F100809368018BEF9B
:102910008093E8000BC08A3029F4F09207011092EE
:10292000690104C08B3031F4E09208018EEF80938E
:10293000E80003C081E28093EB000F90DF91CF911C
:10294000FF91EF91BF91AF919F918F917F916F9187
:102950005F914F913F912F911F910F91FF90EF90B9
:102960000F900FBE0F901F901895909171019111CB
:1029700002C08FEF08959FB7F89424E02093E900F8
:102980002091E4002E5C34E04091E80045FD0EC04B
:102990009FBF90917101992361F39091E400921788
:1029A00041F39FB7F8943093E900EECF8093F100A4
:1029B0006093F1007093F1008AE38093E8009FBF79
:1029C00080E008956091350270913602809137025F
:1029D000909138028617970731F070933802609310
:1029E000370283E0C2CF80E008950F931F93CF9307
:1029F000DF938C01FC01C081D181209799F08A81FD
:102A00009B81009741F4EC81FD810995BE01C801CD
:102A100096D0EC01F2CF01979B838A830990D881ED
:102A2000C02DEBCFDF91CF911F910F910895809131
:102A30007E0190917F01019690937F0180937E01AA
:102A400089E791E0D2CF809177019091780101964A
:102A5000909378018093770182E791E0C6CF8AEF67
:102A600087BD82E084BD93E095BD80936E0080E0D9
:102A7000089580918601909187010895CF93DF9307
:102A8000809186019091870190918001D82FD91B68
:102A900080938001C0E0CD1729F081E891E0A5DFA7
:102AA000CF5FF9CFDF91CF9108951F920F920FB6AC
:102AB0000F9211248F939F938091860190918701AB
:102AC000019690938701809386019F918F910F903B
:102AD0000FBE0F901F901895CF93DF93FC016115E7
:102AE000710541F18481882329F1A081B1816A17A0
:102AF0007B0749F4DB018D919C919183808315C004
:102B00000097C1F0DC018D919C9111978617970772
:102B1000B9F7828193816817790711F4B383A2838F
:102B2000EB01888199818D939C938481815084836A
:102B3000CB0102C080E090E0DF91CF9108950F9328
:102B40001F93CF93DF93EB01C7DF009729F0088134
:102B50001981CE0120D2C801DF91CF911F910F9131
:102B600008950E94660A0E94FF0A21DC21DC882366
:102B7000E9F30E940B0B73DF0E94050B7ADF85508F
:102B800080938C01CEE080910C0190910D01909387
:102B90008B0180938A0120910A0130910B013093BF
:102BA0000D0120930C0190930B0180930A0161DFCA
:102BB00090918C01891B8530D0F35BDF80938C0171
:102BC00080910C0190910D010E94720A10923A02BC
:102BD00080913A02863058F51092390240913902BC
:102BE00060913A024E30F8F4E0910C01F0910D0141
:102BF000C69F90011124240F311DE20FF31F808125
:102C000080938901E0910A01F0910B01E20FF31F1B
:102C100090819093880189133ADB809139028F5F0C
:102C200080933902DBCF6F5F60933A02D1CF88DCAB
:102C30008091090180FF2EC08EE45BDC882319F0AF
:102C40008EE4AADB02C08EE4ACDB83E452DC882392
:102C500019F083E4A1DB02C083E4A3DB83E549DC54
:102C6000882319F083E598DB02C083E59ADB8FE4C3
:102C700040DC882319F08FE48FDB02C08FE491DB06
:102C80008BE437DC882319F08BE486DB02C08BE40D
:102C900088DB8CDBCCDEF2DE76CFEE0FFF1F0590FB
:102CA000F491E02D099433D088F09F5790F0B92F1C
:102CB0009927B751A0F0D1F0660F771F881F991F91
:102CC0001AF0BA95C9F712C0B13081F03AD0B1E02C
:102CD000089537C0672F782F8827B85F39F0B93F3C
:102CE000CCF3869577956795B395D9F73EF4909593
:102CF0008095709561957F4F8F4F9F4F089557FD39
:102D00009058440F551F59F05F3F71F04795880F59
:102D100097FB991F61F09F3F79F0879508951216F0
:102D200013061406551FF2CF4695F1DF08C016169C
:102D300017061806991FF1CF86957105610508944D
:102D40000895E894BB2766277727CB0197F9089564
:102D50000BD078C069D028F06ED018F0952309F018
:102D60005AC05FC01124EECFCADFA0F3959FD1F304
:102D7000950F50E0551F629FF001729FBB27F00D29
:102D8000B11D639FAA27F00DB11DAA1F649F66277E
:102D9000B00DA11D661F829F2227B00DA11D621FCD
:102DA000739FB00DA11D621F839FA00D611D221F87
:102DB000749F3327A00D611D231F849F600D211D6B
:102DC000822F762F6A2F11249F5750408AF0E1F00E
:102DD00088234AF0EE0FFF1FBB1F661F771F881F57
:102DE00091505040A9F79E3F510570F014C0AACFF2
:102DF0005F3FECF3983EDCF3869577956795B79542
:102E0000F795E7959F5FC1F7FE2B880F911D96956B
:102E1000879597F9089597F99F6780E870E060E0DB
:102E200008959FEF80EC089500240A941616170663
:102E300018060906089500240A94121613061406AB
:102E400005060895092E0394000C11F4882352F00E
:102E5000BB0F40F4BF2B11F460FF04C06F5F7F4FC6
:102E60008F4F9F4F0895CF93DF938230910510F4D9
:102E700082E090E0E0913D02F0913E0220E030E0FF
:102E8000A0E0B0E0309739F14081518148175907EF
:102E9000B8F04817590771F482819381109729F08F
:102EA00013969C938E9312972CC090933E0280931E
:102EB0003D0227C02115310531F04217530718F0A4
:102EC000A901DB0101C0EF019A01BD01DF01028010
:102ED000F381E02DD7CF21153105F9F0281B390BEF
:102EE0002430310580F48A819B816115710521F0C0
:102EF000FB019383828304C090933E0280933D0242
:102F0000FE01329644C0FE01E20FF31F81939193BC
:102F100022503109398328833AC020913B023091F5
:102F20003C02232B41F420910201309103013093A4
:102F30003C0220933B0220910001309101012115B8
:102F4000310541F42DB73EB7409104015091050180
:102F5000241B350BE0913B02F0913C02E217F30792
:102F6000A0F42E1B3F0B2817390778F0AC014E5FF9
:102F70005F4F2417350748F04E0F5F1F50933C02F8
:102F800040933B028193919302C0E0E0F0E0CF01D7
:102F9000DF91CF910895CF93DF93009709F487C015
:102FA000FC01329713821282C0913D02D0913E0201
:102FB000209781F420813181280F391F80913B02B5
:102FC00090913C028217930779F5F0933C02E093CD
:102FD0003B026DC0DE0120E030E0AE17BF0750F4C9
:102FE00012964D915C9113979D014115510509F180
:102FF000DA01F3CFB383A28340815181840F951FFF
:103000008A179B0771F48D919C911197840F951FDE
:1030100002969183808312968D919C91139793834E
:1030200082832115310529F4F0933E02E0933D029D
:103030003EC0D9011396FC93EE9312974D915D918A
:10304000A40FB51FEA17FB0779F480819181840FE3
:10305000951F0296D90111969C938E93828193813C
:1030600013969C938E931297E0E0F0E08A819B8107
:10307000009719F0FE01EC01F9CFCE0102962881EC
:103080003981820F931F20913B0230913C02281717
:10309000390769F4309729F410923E0210923D02EC
:1030A00002C013821282D0933C02C0933B02DF9194
:1030B000CF910895A0E0B0E0EFE5F8E1CBC0EC01DE
:1030C000CB01209711F4CFDEB4C0FE01E60FF71F4D
:1030D0009E0122503109E217F30708F4A8C0D90174
:1030E0000D911C91119706171707B0F005301105C7
:1030F00008F49BC0A801445051094617570708F42B
:1031000094C002501109061B170B019311936D9384
:103110007C93CF0140DF89C05B01A01AB10A4E0148
:10312000800E911EA0913D02B0913E02612C712C47
:1031300060E070E0109709F449C0A815B905C9F519
:10314000ED90FC901197670142E0C40ED11CCA14A7
:10315000DB0478F147018A189B08640142E0C40E41
:10316000D11C1296BC9012971396AC91B5E0CB1679
:10317000D10440F0B282A38391828082D9018D93E1
:103180009C9309C00E5F1F4F0E0D1F1DF901118387
:103190000083EB2DFA2F6115710531F0DB011396D9
:1031A000FC93EE93129741C0F0933E02E0933D02F0
:1031B0003CC06D917C9111976616770608F43B012F
:1031C000BD0112960D90BC91A02DB4CF60913B0231
:1031D00070913C0268157905E9F468167906D0F417
:1031E00040910001509101014115510541F44DB745
:1031F0005EB76091040170910501461B570BE417FF
:10320000F507A8F4F0933C02E0933B02F9019183A7
:1032100080830BC028DE7C01009749F0A801BE0125
:103220000CD0CE01B8DEC70104C0CE0102C080E0E0
:1032300090E0CDB7DEB7EEE029C0FB01DC0102C0B3
:1032400001900D9241505040D8F708952F923F922F
:103250004F925F926F927F928F929F92AF92BF92A6
:10326000CF92DF92EF92FF920F931F93CF93DF9352
:10327000CDB7DEB7CA1BDB0B0FB6F894DEBF0FBEAF
:10328000CDBF09942A88398848885F846E847D84FC
:103290008C849B84AA84B984C884DF80EE80FD80FE
:1032A0000C811B81AA81B981CE0FD11D0FB6F89474
:0E32B000DEBF0FBECDBFED010895F894FFCF35
:0E32BE0000003F022000017D01018D01E101B1
:00000001FF
